:030000000205698D
:0C056900787FE4F6D8FD7581500205B0E3
:08000300120A7012092C80FBA7
:0308F300012F00D2
:1006D1008F1EEF700A12047EE5387059F53022AF93
:1006E1001E7E00EF64037006753003F53822EF6457
:1006F100084E7006753020F53822EF640D4E7006F5
:10070100753002F53822EF64124E7006753007F528
:100711003822EF64174E7006753006F53822EF6403
:100721001C4E7006753004F53822EF64214E7005B9
:06073100753001F53822CD
:100A700012002E12095E7F021208B8120AE37BFFF1
:100A80007A0679D112000E7D807C257F0C120666D5
:060A900043CF01D2AF22AA
:10092C0043CF10D280120ACC7B007A00791F1209B7
:10093C008EEC4D4E4F601A7B007A00791F7F287E1B
:10094C00007D007C00120A96AB307D557FFF1209AA
:02095C00BE22B9
:03000B0002087771
:10087700C0E0C0F0C083C082C0D075D000C000C047
:1008870001C002C003C004C005C006C007758AF4D2
:10089700758CE8120AB2D007D006D005D004D00371
:1008A700D002D001D000D0D0D082D083D0F0D0E019
:0108B700320E
:03001B0002001AC6
:01001A0032B3
:03002B00020028A8
:03002800C2CF3212
:03003B000207E2D7
:1007E200C0E0C0F0C083C082C0D075D000C000C0DD
:1007F20001C002C003C004C005C006C007E59D30A9
:10080200E106539DFD753E01E59D30E009539DFED5
:10081200753901120737D007D006D005D004D003AE
:10082200D002D001D000D0D0D082D083D0F0D0E09E
:010832003293
:100A1A00EFFD7C00D394027480948040037F01220E
:100A2A00ED4C7008439A02539BFDFF22EF6401705C
:0C0A3A0008439A01539BFEFF227F01221B
:070B0C0012003EFF020A1A6D
:0208B8008F3F70
:1008BA00D3EF94027480948040037F0122E4F54EC2
:1008CA00E54EC3953F5016744F254EF8A64E744F09
:1008DA00254EF9E4FAFB120B0C054E80E3E54E6552
:0808EA003F60037F01227F0043
:0108F20022E3
:10095E00758E07438901758AF4758CE8C28CD2A90D
:10096E00D28C438920758B60758D60C28ED2ABD2CE
:10097E008EE4F5C875CB83F5CAC2CAD2ADD2CA22EF
:100666008F3F8C408D415391F543920A758FC0752B
:100676009D50AF3FE4FCFDFE7B407A42790FF812B5
:100686000084C006C007AE40AF41AB07AA06E4F936
:10069600F8D007D0061208338F9EAF3FE4FCFDFE6C
:1006A6007B407A42790FF8120084C006C007AE403C
:1006B600AF41AB07AA06E4F9F8D007D00612083313
:0B06C60078081200E48F9575A901224E
:0A001E008F9FE53E60FCE4F53E22F2
:060A46008B468A47894837
:100A4C00E4FEEEC39404748094805015AB46AA4720
:100A5C00A9488E82758300120057FF12001E0E806B
:030A6C00E17F0027
:010A6F002264
:0609BE008F3F8D408B41CC
:1009C4007E007F047D007B007A0079421201B985A4
:1009D4003F42854043854144E54225432544F5454E
:0909E4007B007A007942020A4608
:03003800AF9F2255
:0E0AF500E53C30E706E4F53C7F01227F00225D
:100737001200388F49E53C5480704AE53C30E61298
:10074700AF49EF64FB7007433C80752F0122753C6E
:100757000022E53C6405700DE549B53D05433C4085
:100767008003E4F53C7431253CF8A649053CE531A6
:100777002532253325342535F53DE53164A560055A
:05078700E4F53CF53D26
:01078C00224A
:10047E00120AF5EF7003020568E534FEE5358E3A93
:10048E00F53B7E007F077D007B007A0079311201FB
:10049E00B9E53B853AF012018604FF01000504011F
:1004AE00010509010205040103050E0104051301EE
:1004BE000505180106051D0107052201080527017E
:1004CE0009052C010A0531010B0536010C053B010E
:1004DE000D0540010E054A020005450201055403B3
:1004EE0000054F030105590401055E0402000005D5
:1004FE0065E4F530805D75300480587530018053A9
:10050E00753020804E7530058049753008804475F1
:10051E00300A803F753013803A753014803575304F
:10052E00158030753002802B7530038026753006AD
:10053E008021753007801C75302180177530228020
:10054E0012753030800D7530318008753041800362
:0B055E0075304275380122E4F53022B0
:1008F6000115FF602800000000000000010203044B
:1009060005060708090A0B0C0D0E0F101112131419
:0F09160015161718191A1B1C1D1E1F202122232E
:1005F500E4F540F5417F0112078DEF700505417562
:1006050040017F0212078DEF700505417540027F9D
:100615000312078DEF700505417540037F0412072E
:100625008DEF700505417540047F0512078DEF704C
:100635000505417540057F0612078DEF70050541DB
:100645007540067F0712078DEF7005054175400758
:10065500D3E54194017480948040037540FFAF4019
:010665002272
:100AE3001209EDE4F510FB7A007916FFFEFDFC0216
:020AF3000A9661
:100341007B007A00791612098EEC4D4E4F70037FB7
:10035100FF227B007A0079167FA07E007D007C0061
:10036100120A961205F58F3FEFF470037FFF22E525
:100371001014603014606C14700302042E240360A6
:1003810003020478E53F7002FF22853F157B007A66
:100391000079087FA07E007D007C00120A9675100E
:1003A1000102047BE515653F60030204787B007A56
:1003B10000790812098EEC4D4E4F700302047B7BCD
:1003C100007A0079087FA07E007D007C00120A96E9
:1003D100751002E51575F005A42400F582E43400DA
:1003E100020473E515653F6012E4F510E51575F03B
:1003F10005A42401F582E4340080777B007A00793A
:100401000812098EEC4D4E4F60707B007A0079081E
:100411007FA07E007D007C00120A96751003E51511
:1004210075F005A42402F582E434008045E51565E4
:100431003F6012E4F510E51575F005A42404F5827A
:10044100E43400802D7B007A00790812098EEC4D8E
:100451004E4F60267B007A0079087FA07E007D00E8
:100461007C00120A96E51575F005A42403F582E4D3
:0C0471003400F583E0FF22E4F5107FFF6B
:01047D00225C
:0C000E00EA494B60068B128A1389142209
:100ACC001203418F11E513451445126009851482F8
:070ADC008513831201B7220C
:10078D00EFFD7C0064017005A29433FF22ED64023D
:10079D004C7005A2A633FF22EFFD7C0064037005AB
:1007AD00A29533FF22ED64044C7005A2A033FF2205
:1007BD00EFFD7C0064057005A2A133FF22ED6406F8
:1007CD004C7005A2A433FF22EF64077005A2A53378
:0507DD00FF227FFF2256
:1009ED0053A1FE43A20153A1FD43A20253A1EF4324
:1009FD00A21053A1DF43A22053A1BF43A2405391A4
:0D0A0D00EF4392105391DF4392207F0122AE
:06092500044A000000007E
:0A002E00E4F54DF54CF54BF54A22C0
:100AB200AF4DAE4CAD4BAC4AEF2401F54DE43EF5E3
:0A0AC2004CE43DF54BE43CF54A22FC
:090B0300AF4DAE4CAD4BAC4A22E3
:100A96008F438E428D418C40120B03120128AF43C7
:0C0AA600AE42AD41AC40900004020142A1
:10098E008B408A4189429000041200F8120166C31E
:10099E00E54D9BFBE54C9AFAE54B99F9E54A98F83B
:1009AE00C31200D3E440047F018001FFFEFDFC2250
:10057500020003E493A3F8E493A34003F68001F299
:1005850008DFF48029E493A3F85407240CC8C33387
:10059500C4540F4420C8834004F456800146F6DF56
:1005A500E4800B01020408102040809008F3E47EEB
:1005B500019360BCA3FF543F30E509541FFEE4934B
:1005C500A360010ECF54C025E060A840B8E493A312
:1005D500FAE493A3F8E493A3C8C582C8CAC583CA3D
:1005E500F0A3C8C582C8CAC583CADFE9DEE780BEF5
:01092B0000CB
:10003E00BB010689828A83E0225002E722BBFE02C0
:09004E00E32289828A83E49322F3
:10005700BB010CE58229F582E5833AF583E022505E
:1000670006E92582F8E622BBFE06E92582F8E222A8
:0D007700E58229F582E5833AF583E49322C2
:10008400E88FF0A4CC8BF0A42CFCE98EF0A42CFC1B
:100094008AF0EDA42CFCEA8EF0A4CDA8F08BF0A499
:1000A4002DCC3825F0FDE98FF0A42CCD35F0FCEBF8
:1000B4008EF0A4FEA9F0EB8FF0A4CFC5F02ECD39BD
:0F00C400FEE43CFCEAA42DCE35F0FDE43CFC222A
:10083300C2D5E830E70FB2D5E4C39BFBE49AFAE4F0
:1008430099F9E498F8EC30E717B2D5120869120267
:1008530021E4C39BFBE49AFAE499F9E498F8800352
:1008630012022130D50DE4C39FFFE49EFEE49DFDFB
:04087300E49CFC22E3
:1000D300EB9FF5F0EA9E42F0E99D42F0E89C45F083
:0100E30022FA
:1000E400E86010ECA2E713FCED13FDEE13FEEF1332
:0400F400FFD8F0221F
:1000F800BB010DE58229F582E5833AF5830202BF4B
:100108005007E92582F80202B3BBFE07E92582F809
:100118000202CBE58229F582E5833AF5830202D70C
:10012800BB010789828A830203295005E9F8020383
:0A0138001DBBFE05E9F802033522A5
:10014200BB010DE58229F582E5833AF58302032995
:100152005007E92582F802031DBBFE07E92582F854
:04016200020335223D
:10016600BB010789828A830202F45005E9F802027C
:10017600E7BBFE05E9F802030089828A8302030DC4
:10018600D083D082F8E4937012740193700DA3A308
:1001960093F8740193F5828883E473740293B5F03F
:0D01A600067403936860E9A3A3A3A380D8A7
:0601B3008A838982E473D7
:1001B900EF4E6012EF60010EEDBB010B89828A835D
:1001C900F0A3DFFCDEFA2289F05007F709DFFCA96A
:0C01D900F022BBFEFCF309DFFCA9F022C1
:1001E50075F008758200EF2FFFEE33FECD33CDCCD1
:1001F50033CCC58233C5829BED9AEC99E582984054
:100205000CF582EE9BFEED9AFDEC99FC0FD5F0D630
:10021500E4CEFBE4CDFAE4CCF9A88222B800C1B95A
:100225000059BA002DEC8BF084CFCECDFCE5F0CB98
:10023500F97818EF2FFFEE33FEED33FDEC33FCEBD1
:1002450033FB10D703994004EB99FB0FD8E5E4F98C
:10025500FA227818EF2FFFEE33FEED33FDEC33FC79
:10026500C933C910D7059BE99A4007EC9BFCE99A6D
:10027500F90FD8E0E4C9FAE4CCFB2275F010EF2FB2
:10028500FFEE33FEED33FDCC33CCC833C810D707B2
:100295009BEC9AE899400AED9BFDEC9AFCE899F8ED
:0E02A5000FD5F0DAE4CDFBE4CCFAE4C8F92280
:0C02B300E6FC08E6FD08E6FE08E6FF2277
:0C02BF00E0FCA3E0FDA3E0FEA3E0FF22B2
:0C02CB00E2FC08E2FD08E2FE08E2FF226F
:1002D700E493FC740193FD740293FE740393FF226D
:0D02E700E6FB08E6F908E6FA08E6CBF82287
:0C02F400E0F8A3E0F9A3E0FAA3E0FB228D
:0D030000E2FB08E2F908E2FA08E2CBF8227D
:10030D00E493F8740193F9740293FA740393FB2246
:0C031D00ECF608EDF608EEF608EFF6220C
:0C032900ECF0A3EDF0A3EEF0A3EFF02247
:0C033500ECF208EDF208EEF208EFF22204
:00000001FF
